:020000040800F2
:1000000000000220511C0008710900087309000853
:100010007509000877090008790900080000000048
:100020000000000000000000000000007B09000844
:100030007D090008000000007F0900088109000810
:10004000A11C0008A11C0008A11C0008A11C00089C
:10005000A11C0008A11C0008A11C0008A11C00088C
:10006000A11C0008A11C0008A11C0008A11C00087C
:10007000A11C0008A11C0008A11C0008A11C00086C
:10008000A11C0008A11C0008A11C0008A11C00085C
:10009000A11C0008A11C0008A11C0008A11C00084C
:1000A000A11C0008A11C0008A11C0008A11C00083C
:1000B000A11C0008A11C0008A11C0008A11C00082C
:1000C000A11C0008A11C0008A11C0008A11C00081C
:1000D000A11C0008A11C0008A11C0008A11C00080C
:1000E000A11C0008A11C000800000000A11C0008C1
:1000F000A11C0008A11C0008A11C0008A11C0008EC
:10010000A11C0008A11C0008A11C0008A11C0008DB
:10011000A11C0008A11C0008A11C0008A11C0008CB
:10012000A11C0008A11C0008A11C0008A11C0008BB
:10013000A11C0008A11C0008A11C0008A11C0008AB
:1001400000000000000000000000000000000000AF
:10015000A11C0008A11C0008A11C0008A11C00088B
:10016000A11C0008A11C0008A11C0008A11C00087B
:10017000A11C0008A11C0008A11C0008A11C00086B
:10018000A11C0008A11C0008A11C0008A11C00085B
:10019000A11C0008A11C0008A11C0008A11C00084B
:1001A000A11C0008A11C0008A11C0008A11C00083B
:1001B000A11C0008A11C0008A11C0008A11C00082B
:1001C000A11C0008A11C0008A11C0008A11C00081B
:1001D000A11C0008A11C0008A11C0008A11C00080B
:1001E000A11C0008A11C0008A11C0008A11C0008FB
:1001F000A11C0008A11C0008A11C0008A11C0008EB
:10020000A11C0008A11C0008A11C0008A11C0008DA
:10021000A11C0008A11C0008A11C0008A11C0008CA
:10022000A11C0008A11C0008A11C0008000000007F
:10023000A11C0008A11C000800000000A11C00086F
:10024000A11C0008A11C0008A11C0008A11C00089A
:10025000A11C0008A11C0008A11C0008A11C00088A
:10026000A11C0008A11C0008A11C0008A11C00087A
:10027000A11C0008A11C0008A11C0008000000002F
:10028000A11C0008A11C0008A11C0008000000001F
:1002900000000000A11C000810B5054C237833B9FC
:1002A000044B13B10448AFF300800123237010BD49
:1002B0003C04002000000000081E000808B5034BA5
:1002C0001BB103490348AFF3008008BD00000000E4
:1002D00040040020081E000880B59CB0BFF34F8F7B
:1002E000BFF36F8F684B0021C3F85012BFF34F8FDD
:1002F000BFF36F8F5A6942F400325A61BFF34F8FD8
:10030000BFF36F8FC3F88410BFF34F8FD3F88020F3
:1003100043F6E076C2F3C904C2F34E32A507520198
:1003200002EA060C284621464CEA0007013900F192
:100330004040C3F860724F1CF6D1203A12F1200FF2
:10034000EED1BFF34F8F5A6942F480325A61BFF346
:100350004F8FBFF36F8F00F079FB022000F016FD86
:1003600000230093494BDA6A22F00102DA62DB6A69
:1003700003F001030093464B9A6942F440429A61AC
:100380009A6902F440420092009A9A699404FCD55A
:100390004FF480334FF0010E0520A02102220424E7
:1003A00008251692189217941995CDE909E30023B0
:1003B000CDE9140109A80C9310931B931A93CDE96E
:1003C000122201F005F800B1FEE703234FF03F0CC5
:1003D0004FF480622146CDE901C34023CDE90305F6
:1003E00001A8CDE90533CDE9072301F00DFB00B1EC
:1003F000FEE700F0BBF900B1FEE7BFF34F8FBFF39C
:100400006F8F214B5A6922F400325A61C3F85002AF
:10041000BFF34F8FBFF36F8FC3F88400BFF34F8FCD
:100420005A6922F480325A61BFF34F8FD3F880208B
:1004300043F6E076C2F3C904C2F34E32A507520177
:1004400002EA060C284621464CEA0007013900F171
:100450004040C3F874724F1CF6D1203A12F1200FBD
:10046000EED1BFF34F8FBFF36F8F0A4B00221A609C
:10047000094B0A4A1B6813604FF01042126882F35E
:1004800008889847FEE700BF00ED00E00004005830
:100490000048025810E000E00400009058040020DA
:1004A0007B4B2DE9F04FD3F8D42091B0794D09243E
:1004B00042F480420026784F0BA9C3F8D420284686
:1004C000D3F8D4204FF040084FF00A0BDFF8D0A14A
:1004D00002F480424FF400790092009ADA6F42F4FD
:1004E0008042DA67DA6F22F48042DA67D3F8E020DC
:1004F00042F02002C3F8E020D3F8E02002F020020E
:100500000192019AD3F8E02042F00802C3F8E020FB
:10051000D3F8E02002F008020292029AD3F8E02019
:1005200042F02002C3F8E020D3F8E02002F02002DD
:100530000392039AD3F8E02042F02002C3F8E020AF
:10054000D3F8E02002F020020492049AD3F8E020CD
:1005500042F02002C3F8E020D3F8E02002F02002AD
:100560000592059AD3F8E02042F04002C3F8E0205B
:10057000D3F8E02002F040020692069AD3F8E02079
:1005800042F08002C3F8E020D3F8E02002F08002BD
:100590000792079AD3F8E02042F08002C3F8E020E7
:1005A000D3F8E02002F080020892089AD3F8E02005
:1005B00042F04002C3F8E020D3F8E02002F040020D
:1005C0000992099AD3F8E02042F04002C3F8E020F3
:1005D0004FF48062D3F8E03003F040030A930A9BA3
:1005E0000223CDE90B230323CDE90D630F9400F023
:1005F000DBFA01230BA93846CDF82C800D93CDF8FA
:100600003CB000F0D1FA4FF400630BA923480B93E0
:100610000D960F9400F0C8FA04230BA950460F94CE
:100620000B9300F0C1FA0BA92846CDF82C90CDF819
:100630003CB000F0B9FA08230BA950460F940B9375
:1006400000F0B2FA80230BA928460F940B9300F018
:10065000ABFA0BA93846CDF82C9000F0A5FA0BA9FF
:100660002846CDF82C8000F09FFA4FF480430BA968
:1006700038460B9300F098FA32460F215C2000F0C8
:100680003DFA5C2000F06CFA11B0BDE8F08F00BFBD
:10069000004402580014025800180258000C025876
:1006A000001C025800B54FF4407395B04FF04072F3
:1006B00011480C9305230F920222069300230B92FC
:1006C00006A913930093049303926A46CDE90D3370
:1006D000CDE91133102302934FF48003059340F2C8
:1006E0000113019341F2883300F0D9FD003018BFA7
:1006F000012015B05DF804FB5C04002000B54FF448
:10070000407395B041F2883217480C93062306A92E
:1007100006930023CDE90D330F930B931393CDE98B
:10072000113300F0BCFCE8B940F2022302224FF47E
:10073000800104900C48CDE900331023CDE902324A
:1007400005236A46CDE905134FF0407306A90F93C0
:1007500041F2883300F0A3FD003018BF012015B02E
:100760005DF804FB0120FAE75C0400202DE9F0436A
:100770007D4C9DB07D4B2046236000F074FC074605
:1007800008B10124ECE0FFF78BFE01250323C4E947
:1007900001351023E3604FF0006393FAA3F3B3FA3B
:1007A00083F34FF440762046E761013B2361402309
:1007B000C4E90567236200F0F7FB0028E1D14FF49C
:1007C00080774FF06609099041F2883205906946BA
:1007D0000D900697CDF80090CDE90700CDE90B000C
:1007E000204600F05CFC0028CBD14FF0990841F284
:1007F000883269462046CDF8008000F050FC002881
:10080000BFD141F28832694620460696CDF8009065
:1008100000F045FC0028B4D141F2883269462046F8
:10082000CDF8008000F03BFC0028AAD135231790BA
:10083000139041F288321B900EA914970E93CDE9C4
:100840001500CDE91900204600F029FC002898D1B8
:10085000FFF728FF002894D1B723149617900E9322
:1008600013901B90CDE91500CDE91900FFF746FF65
:10087000002886D141F288320EA9204600F00FFCF4
:1008800000287FF47EAFFFF70DFF00287FF479AFDB
:1008900085234FF440764FF04075ADF800000E937D
:1008A0000223139041F288320EA914961795CDE9D0
:1008B0001500CDE91830CDE91A002B4800F0EFFB08
:1008C00000287FF45EAF41F288326946264800F086
:1008D00085FC00287FF455AFFFF710FF0446002881
:1008E0007FF44FAF812341F288320EA91E480E9348
:1008F000BDF8003023F0F0031B051B0D43F400434B
:1009000043F08003ADF8003000F0C9FB00287FF40D
:1009100038AF41F288326946134800F003FC0028E2
:100920007FF42FAFED236A460EA90F480E934FF4C4
:1009300040631B9415934FF4405314961193052371
:10094000CDE9164513934FF000454FF08043CDE9B4
:100950000044CDE9195300F0F7FC002818BF01242A
:1009600020461DB0BDE8F0835C040020005000521A
:100970007047FEE7FEE7FEE7FEE770477047704707
:1009800000F092B81849194810B5D1F8883043F4EE
:100990007003C1F88830164B1A6842F001021A60E1
:1009A00000221A611C68204018609A61DA611A629C
:1009B0009A62DA621A635A639A63DA631A645A644F
:1009C000186820F4802018601A660A4B1B681B0CFC
:1009D0001B04B3F1005F02D2074B01221A604FF0F3
:1009E00000638B6010BD00BF00ED00E07FEDF6EA14
:1009F000004402580010005C08810051704700005C
:100A000038B50F4B0546187808B9012038BD4FF4AA
:100A10007A730C4AB3FBF0F31068B0FBF3F000F00C
:100A2000ADF804460028F0D10F2DEED80246294635
:100A30004FF0FF3000F062F8034B20461D60E5E701
:100A400008000020000000200C00002010B503204A
:100A500000F042F800F03CFF0F49104A8B69C3F3E5
:100A60000323D35C03F01F03D8400D4B18608B6940
:100A700003F00F03D35C03F01F03D840094B186049
:100A80000F20FFF7BDFF044618B9FFF7B7FF204658
:100A900010BD0124FBE700BF00440258201E0008DF
:100AA0000000002004000020034A044B11681B785A
:100AB0000B441360704700BFA8040020080000200A
:100AC000014B1868704700BFA8040020014B18684C
:100AD000000C70470010005C074A0002D36800F465
:100AE000E06023F4E0631B041B0C43F0BF6343F49A
:100AF00000330343D360704700ED00E0164B70B540
:100B0000DC684FF0FF36C4F30224C4F10705231D4F
:100B1000042D28BF0425062B06FA05F38CBF033CE1
:100B20000024002821EA030303FA04F306FA04F47C
:100B300022EA040443EA04034FEA0313DBB206DBB0
:100B400000F1604000F5614080F8003370BD00F0B6
:100B50000F00024A1354F9E700ED00E014ED00E045
:100B6000002808DB4209012300F01F0003FA00F00F
:100B7000014B43F82200704700E100E00138B0F17A
:100B8000807F0AD2064BF021064A5860002082F886
:100B90002310072298601A6070470120704700BF39
:100BA00010E000E000ED00E04FF0B04C00232DE934
:100BB000F74F724EE246DFF8D0B10A6832FA03F41A
:100BC00002D103B0BDE8F08F4FF0010E0EFA03FE24
:100BD0001EEA020200F0BD804C6824F01004022CD2
:100BE00014D14FEAD30803F007090F2500EB88085A
:100BF0004FEA8909D8F8204005FA09F524EA0505E5
:100C00000C6904FA09F42C43C8F820404FEA430861
:100C10004FF003094C6809FA08F9056804F0030469
:100C20006FEA090904FA08F409EA05052C4304608F
:100C30004D6825F01005013D012D11D88468CD685F
:100C400009EA040405FA08F525438560446824EAA6
:100C50000E0E4C68C4F300149C4044EA0E04446039
:100C6000C46809EA04098C6804FA08F444EA09042F
:100C7000C4604C68E4006CD5414D03F0030E4FF0A6
:100C80000F08D5F8F4404FEA8E0E44F00204C5F880
:100C9000F440D5F8F44023F0030505F1B04504F025
:100CA000020405F580650194019C08FA0EF4D5F85C
:100CB000089029EA0408334CA0424CD004F5806423
:100CC000A0424AD004F58064A04248D0584548D09C
:100CD00004F50064A04246D004F58064A04244D0EC
:100CE00004F58064A04242D004F58064A04240D064
:100CF00004F58064A0423ED004F58064A0420CBF9D
:100D000009240A2404FA0EF444EA0804AC60D5432A
:100D10004F683468FF034CBF14432C4034604F6865
:100D20007468BF034CBF14432C4074604F68DCF8F8
:100D30000040FF024CBF14432C40CAF800404F68EB
:100D4000DAF80440BF0254BF05EA04022243CCF89B
:100D50000420013331E70024D4E70124D2E7022440
:100D6000D0E70324CEE70424CCE70524CAE7062411
:100D7000C8E70724C6E70824C4E700BF800000587E
:100D80000044025800000258000C025838B5104CBC
:100D9000E36813F0040FE36805D103F00703181AA2
:100DA00018BF012038BD23F007031843E060FFF7A8
:100DB00087FE054663689B0401D50020F2E7FFF734
:100DC0007FFE401BB0F57A7FF4D90120EAE700BF2F
:100DD000004802584B6A2DE9F04733B1B2F1406F39
:100DE00003D08B6A0468013B23618B690C6A002B7A
:100DF00067D00568002C35D08B68EB61CC694B6AF5
:100E000005688F69D1F820C0D1F83480D1F810E09E
:100E10000E68D1E90BA9A4B144EA0A04144344EAD8
:100E2000090444EA08042343CC6843EA0E0343EA76
:100E30000C0323433B434C69334343EA84436B61D4
:100E40002AE04AEA0904144344EA0804234343EA33
:100E50000E0343EA0C033B4333434E6943EA8646A1
:100E60006E612CE04E69CC69D1F80090B604D1F8DF
:100E700024804F6BD1E90BECACB11C43CB6814431D
:100E800044EA090444EA080444EA0E0444EA0C046F
:100E90003C431C4334436C61B2F1406F0FD0036894
:100EA0004A689A610BE043EA0903134343EA0803E3
:100EB00043EA0E0343EA0C033B4333436B61BDE853
:100EC000F08744B303688C68DC61CC69D1F8248076
:100ED00005688E69D1F820C04B6BD1F810E0D1E9DC
:100EE0000B796CB13C43144344EA09042343CC68B6
:100EF00043EA080343EA0E0343EA0C0323439AE759
:100F000047EA09042243134343EA080343EA0E0372
:100F100043EA0C03A0E7CD694B6A7DB12B43CD6A50
:100F2000046813432B430D6B2B434D6B2B43CD6850
:100F30002B434D6943EA85436361ADE7002BBED087
:100F4000CC6A0068234313430A6B13434A6B134371
:100F50004A6943EA82434361B1E72DE9F041069DC6
:100F600004460F461646984621688A683A4214BFDE
:100F700001220022B24201D1002011E06B1CF4D00A
:100F8000FFF79EFDA0EB0800A84201D8002DEBD191
:100F90000423012084F84130636C43F0010363644F
:100FA000BDE8F0817047000037B50446FFF788FDC3
:100FB0000546002C4FD094F84030012B4DD0012332
:100FC00084F8403094F8412002F0FF033AB984F8E5
:100FD00040302046FFF7E6FF41F28833A3642068E3
:100FE000A1680268013922F4706242EA01222021DC
:100FF00002600022A36C204600932B46FFF7ADFF52
:1010000020BB2168E569E3680A682B43256A22F062
:101010007F422B43656822F0D00243EA0563134305
:101020000B602168D4E905324D681343226943EA15
:1010300002430B4A2A4013434B602268136843F073
:10104000010313600123606484F84130002384F8B5
:10105000403003B030BD0120FBE70220F9E700BFBC
:10106000FEF8E0FF704710B50446A0B190F840309C
:10107000012B12D00268012380F84030136823F05E
:1010800001031360FFF7EEFF0020606484F8410065
:1010900084F8400010BD0120FCE70220FAE72DE9AA
:1010A000F34704468A469146FFF70AFD94F840301C
:1010B0008046012B34D00123022784F8403094F875
:1010C0004160F6B29E4229D100220346CDF800903D
:1010D00020216264204684F84170FFF73EFF0546F8
:1010E000A8B9024651462046FFF774FEDAF82430CC
:1010F0005BB9CDF800904346324639462046FFF7AB
:101100002CFF054618B92368DF6084F8416000238E
:1011100084F84030284602B0BDE8F0873D46F6E747
:101120000225F7E72DE9F341044688461746FFF705
:10113000C7FC94F840300646012B4DD001232568AA
:1011400084F8403094F84100C0B2984242D1002364
:101150006364B8F1000F38D0122384F841302B6952
:101160000133E3622B69C4F824800133A3626B6905
:1011700023F040636B61E36A9BB900973346012219
:1011800002212046FFF7E9FE10B923680222DA6047
:10119000012384F84130002384F8403002B0BDE8D8
:1011A000F08100973346012204212046FFF7D5FE47
:1011B0000028EDD1636A1B7885F82030636A01331B
:1011C0006362E36A013BE362D5E7636C43F00803C3
:1011D0006364E0E70220DEE70220DFE72DE9F34168
:1011E000044617468846FFF76BFC25680646AA6941
:1011F00094F84030012B50D0012384F8403094F80B
:101200004100C0B2984246D100236364B8F1000F98
:101210003CD0222384F841302B690133A3632B692E
:10122000C4F83080013363636B6923F0406343F09B
:1012300080636B6123689A61A36B9BB90097334607
:10124000012202212046FFF788FE10B923680222FE
:10125000DA60012384F84130002384F8403002B082
:10126000BDE8F08100973346012206212046FFF7B2
:1012700074FE0028EDD195F82020236B1A70236BA3
:1012800001332363A36B013BA363D5E7636C43F096
:1012900008036364E0E70220DEE70220DFE72DE9D0
:1012A000F7430446984689461646FFF709FC94F82A
:1012B00040300746012B45D0012384F8403094F894
:1012C0004150EDB29D423BD142230022CDF8008037
:1012D0002021626484F8413003462046FFF73DFE3A
:1012E00040BB2368204632689A62236872685A625B
:1012F0002368B268DA62216833690A6843F48003BC
:1013000022F4400213434FF000620B604946F36839
:10131000C9F82830FFF75EFDCDF800803B462A462D
:1013200008212046FFF719FE20B923680822DA6059
:1013300084F84150002384F8403003B0BDE8F083C6
:101340000220F7E70220F8E7F7B5044617460E46F5
:10135000FFF7B6FB94F840200346012A36D001225D
:1013600084F8402094F84120012A2DD100228221C6
:101370002046626484F84110A16C00912021FFF79F
:10138000ECFD0546D0B922687968136823F008039C
:101390000B4313607B68082B0AD123683A681A63F1
:1013A00010222368DA602268136843F48013136004
:1013B0004FF0406231462046FFF70CFD002384F8D1
:1013C0004030284603B0F0BD0225F7E70225F8E7D4
:1013D000F8B5044608B9012090E00368DD075ED443
:1013E0002368980700F1AC802368DA0623D5AB4B5D
:1013F0001A69996A02F03802082A07D0182A40F0C0
:10140000008101F00302012A40F0FB801B68DB052C
:1014100002D5E369802BDED1FFF758FB41F20303CD
:101420009E4A9842216A00F2E580536823F0F8430F
:1014300043EA816353602368190700F11B81236825
:101440009A0600F1408123685D0722D5944D2B68F0
:1014500043F480732B60FFF733FB06462B68DA05F5
:1014600040F15681A2688D4B012A40F058811A6FD5
:1014700042F001021A67A368002B00F06781FFF7B2
:101480001FFB864D064641F288372B6F9B0740F1C4
:101490005681606A002840F0698100202EE07F4B71
:1014A0001A69996A02F03802102A05D0182A0AD15E
:1014B00001F00302022A06D11B68990390D56368E4
:1014C000002B8DD187E76268744BB2F5803F16D14F
:1014D0001A6842F480321A6063680BB3FFF7F0FABF
:1014E0006E4D064641F288372B689A033FF578AF78
:1014F000FFF7E6FA801BB842F6D90320F8BD3AB9E7
:101500001A6822F480321A601A6822F48022E2E714
:10151000B2F5A02F1A68F4D142F480221A60D7E7FE
:10152000FFF7CEFA5D4D064641F288372B689B03E4
:101530007FF556AFFFF7C4FA801BB842F6D9DCE757
:10154000564B1A69996A12F0380203D0182A1BD137
:101550008E0719D11B685D0703D5E368002B3FF4A4
:101560003AAFFFF7B3FA41F203034C4A98422169BC
:10157000536895BF23F47C3323F0FE4343EA0133E1
:1015800043EA016353602FE7444DE2682B680AB3D6
:1015900023F0190313432B60FFF792FA06462B68DA
:1015A000580711D5FFF792FA41F2030322699842D6
:1015B0006B6895BF23F47C3323F0FE4343EA023388
:1015C00043EA02636B600FE7FFF77AFA801B022899
:1015D000E5D992E723F001032B60FFF771FA064685
:1015E0002B6859077FF500AFFFF76AFA801B0228C6
:1015F000F6D982E7D36823F07C5343EA0163D360D2
:1016000019E7E369254D23B32B6843F080032B6072
:10161000FFF756FA06462B68DF050DD5FFF756FA99
:1016200041F20303226A98420CD86B6823F0F84316
:1016300043EA82636B60FEE6FFF742FA801B0228F2
:10164000E9D95AE7EB6823F07C5343EA0263EB6085
:10165000F1E62B6823F080032B60FFF731FA064692
:101660002B68D8057FF5E7AEFFF72AFA801B022822
:10167000F6D942E76369094DA3B16B6F43F00103EB
:101680006B67FFF71DFA06466B6F9B073FF5D7AEFA
:10169000FFF716FA801B0228F6D92EE700440258FD
:1016A000004802586B6F23F001036B67FFF708FADD
:1016B00006466B6F9F077FF5C2AEFFF701FA801BEE
:1016C0000228F6D919E7A369804D83B12B6843F44A
:1016D00080532B60FFF7F4F906462B6898043FF51A
:1016E000B2AEFFF7EDF9801B0228F6D905E72B68AB
:1016F00023F480532B60FFF7E3F906462B68990427
:101700007FF5A1AEFFF7DCF9801B0228F6D9F4E6DD
:10171000FFF7D6F9801B64287FF6A0AEEDE63AB954
:101720001A6F22F001021A671A6F22F00402A1E672
:10173000052A1A6FF5D142F004021A6797E6FFF7FF
:10174000BFF9801BB8427FF6A0AED6E6FFF7B8F926
:101750005E4D064641F288372B6F98077FF599AEAC
:10176000FFF7AEF9801BB842F6D9C6E6574D2B6994
:1017700003F03803182B7AD02B68022823F08073EB
:101780002B6067D1FFF79CF906462B6899015BD463
:10179000AB6AA26A23F47C7323F003031343E26A67
:1017A00043EA0213AB62636BA26B013B013A5B023B
:1017B00012049BB202F4FE021343226B013AC2F3FD
:1017C00008021343E26B013A120602F0FE42134391
:1017D0002B63EB6A23F00103EB626B6BA26C23F4C7
:1017E0007F4323F0F80343EAC2036B63EB6A226C86
:1017F00023F00C031343EB62EB6A626C23F00203E9
:10180000324C1343EB62EB6A43F48033EB62EB6AD6
:1018100043F40033EB62EB6A43F48023EB62EB6A40
:1018200043F00103EB622B6843F080732B60FFF7FA
:1018300047F9054623689A013FF52FAEFFF740F9B7
:10184000401B0228F6D958E6FFF73AF9801B022818
:101850009BD952E6FFF734F904462B689B017FF5CC
:101860001CAEFFF72DF9001B0228F6D945E601282A
:10187000AA6A2B6B3FF442AE02F00301A06A8142D8
:101880007FF4A9ADC2F30512E16A8A427FF4A3ADE9
:10189000226BC3F30801013A91427FF49CAD626B65
:1018A000C3F34621013A91427FF495ADA26BC3F395
:1018B0000641013A91427FF48EADE06BC3F30663BB
:1018C0000138181A18BF012018E600BF004402585A
:1018D000464B10B51A6902F03802102A00F08480D5
:1018E000182A0CD00AB1424810BD1A68414812F0BB
:1018F000200FF9D01B68C3F3C103D840F4E7996AFD
:10190000986ADA6AC0F305105C6B0028ECD007EE29
:10191000900A02F00102C4F3CC00B7EE006AF8EEC0
:10192000E76A424307EE902A01F00302012AFAEE29
:10193000E97A02D00FD3022A48D01B6BC3F3080305
:1019400007EE103AB8EEC77A77EE277A77EE867A06
:101950009FED296A37E01A68920627D51968254A4B
:10196000C1F3C1011B6BCA40C3F3080307EE102A81
:10197000F8EEC75A85EEA67A06EE903AF8EEE66AD9
:1019800076EEA77A77EE867A184B67EE877A1B6B2E
:10199000C3F34623013307EE103AF8EEC76A87EE29
:1019A000A67AFCEEC77A17EE900A9DE71B6BC3F38D
:1019B000080307EE103AB8EEC77A77EE277A77EE8B
:1019C000867A9FED0E6A86EE267ADDE71B6BC3F3FF
:1019D000080307EE103AB8EEC77A77EE277A77EE6B
:1019E000867A9FED076AEEE706487DE700440258D5
:1019F00000093D000090D0030024744A0024744C78
:101A000020BCBE4B40787D012DE9F0410D460446D7
:101A100010B90120BDE8F081884A136803F00F0374
:101A20008B42C0F0928023685E0700F19A802368A1
:101A300018070BD5824A6069D16901F070018842AC
:101A400004D9D36923F070030343D3612368D90613
:101A50000BD57B4AA069D16901F4E061884204D9C1
:101A6000D36923F4E0630343D36123689A060BD55B
:101A7000734AE069116A01F07001884204D9136A5F
:101A800023F070030343136223689B070BD56C4A52
:101A9000E068916901F00F01884204D9936923F04D
:101AA0000F03034393612368DF0768D423689E070D
:101AB00000F19B80614A136803F00F03AB4200F210
:101AC000A2802368580700F1AA80236819070BD564
:101AD0005B4A6069D16901F07001884204D2D36920
:101AE00023F070030343D3612368DA060BD5544A0D
:101AF000A069D16901F4E061884204D2D36923F47A
:101B0000E0630343D36123689B060BD54C4AE0692D
:101B1000116A01F07001884204D2136A23F0700345
:101B200003431362FFF7D4FE454B464A9B69C3F358
:101B30000323D35C03F01F03D840434B1860434B8F
:101B4000BDE8F0411868FEF75BBF136823F00F0390
:101B50000B431360136803F00F038B427FF459AFFC
:101B600061E7374A2069916901F0700188427FF688
:101B70005EAF936923F070030343936157E7304BE3
:101B8000A1689A6922F470620A439A6161681A68CE
:101B900002291DD112F4003F3FF43BAF1A6941F214
:101BA0008838274E22F007020A431A61FEF788FFA1
:101BB00007463369626803F03803B3EBC20F3FF4A2
:101BC00075AFFEF77DFFC01B4045F2D9032021E72A
:101BD000032902D112F0007FDEE7012902D112F4BD
:101BE000807FD9E712F0040FD6E7154AE0689169C3
:101BF00001F00F018842BFF45DAF936923F00F033A
:101C00000343936156E7136823F00F032B431360DC
:101C1000136803F00F03AB427FF4FBAE51E7084AB1
:101C20002069916901F070018842BFF44EAF936959
:101C300023F070030343936147E700BF0020005285
:101C400000440258201E0008000000200C00002064
:101C5000DFF834D0002103E00C4B5B5843500431D3
:101C60000B480C4B42189A42F6D30B4A02E0002371
:101C700042F8043B094B9A42F9D3FEF783FE00F089
:101C800011F8FEF729FB704700000220401E0008F3
:101C9000000000203C0400203C040020D004002070
:101CA000FEE7000070B50D4E0D4D761BB61006D048
:101CB0000024013455F8043B9847A642F9D1094E57
:101CC000094D761B00F0A0F8B61006D000240134B0
:101CD00055F8043B9847A642F9D170BD341E000860
:101CE000341E00083C1E0008341E0008024B13B1CD
:101CF000024800F005B87047000000000D1D000804
:101D0000002301461A46184600F01EB838B50A4CA2
:101D10000A4D641BA4100AD004F18043013B05EB7B
:101D20008305013C55F804399847002CF9D1BDE8EA
:101D3000384000F06FB800BF401E00083C1E00088D
:101D4000704700BF704700BF2DE9F8432B4D064692
:101D5000286898460F469146FFF7F2FF284B1C680B
:101D6000D4F84831002B3DD05A681F2A0DDC02F10F
:101D7000010C16BB0232C3F804C0286843F8227075
:101D8000FFF7E0FF0020BDE8F8831E4B7BB34FF464
:101D9000C870AFF30080034648B3D4F8482100214F
:101DA000C0E900214FF0010CC4F848010A46C0F810
:101DB0008811C0F88C11002EDCD003EB82010124C5
:101DC000C1F88890D3F8880194402043022EC3F8CC
:101DD0008801C1F80881CDD1D3F88C110C43C3F828
:101DE0008C41C7E704F5A673C4F84831BCE72868FE
:101DF000FFF7A8FF4FF0FF30C5E700BF3804002011
:101E0000301E000800000000F8B500BFF8BC08BC98
:101E10009E467047F8B500BFF8BC08BC9E467047A8
:101E20000000000001020304010203040607080980
:101E300010000020ED1C0008BD02000899020008F7
:101E40000090D0030090D0030100000010000000BB
:101E500000000000FC02002064030020CC030020EE
:101E60000000000000000000000000000000000072
:101E70000000000000000000000000000000000062
:101E80000000000000000000000000000000000052
:101E90000000000000000000000000000000000042
:101EA0000000000000000000000000000000000032
:101EB0000000000000000000000000000000000022
:101EC0000000000000000000000000000000000012
:101ED0000000000000000000000000000000000002
:101EE00000000000000000000000000000000000F2
:101EF00000000000000000000100000000000000E1
:101F00000E33CDAB34126DE6ECDE05000B000000A5
:101F100000000000000000000000000000000000C1
:101F200000000000000000000000000000000000B1
:101F300000000000000000000000000000000000A1
:101F40000000000000000000000000000000000091
:0C2270000000000000000000AC04002092
:0200000490006A
:100000000000082481030090B9100090BD100090FA
:10001000C1100090C5100090C910009000000000B1
:1000200000000000000000000000000051CD009022
:10003000CD10009000000000E1CD009049C4009078
:10004000D1030090D1030090D1030090D103009020
:10005000D1030090D1030090D1030090D103009010
:10006000D1030090D1030090D1030090D103009000
:10007000D1030090D1030090D1030090D1030090F0
:10008000D1030090D1030090D1030090D1030090E0
:10009000D1030090D1030090D1030090D1030090D0
:1000A000D1030090D1030090D1030090D1030090C0
:1000B000D1030090D1030090D1030090D1030090B0
:1000C000D1030090D1030090D1030090D1030090A0
:1000D000D1030090D1030090D1030090D103009090
:1000E000D1030090D103009000000000D1030090E4
:1000F000D1030090D1030090D1030090D103009070
:10010000D1030090D1030090D1030090D10300905F
:10011000D1030090D1030090D1100090D103009042
:10012000D1030090D1030090D1030090D10300903F
:10013000D1030090D1030090D1030090D10300902F
:1001400000000000000000000000000000000000AF
:10015000D1030090D1030090D1030090D10300900F
:10016000D1030090D1030090D1030090D1030090FF
:10017000D1030090D1030090D1030090D1030090EF
:10018000D1030090D1030090D1030090D1030090DF
:10019000D1030090D1030090D1030090D1030090CF
:1001A000DD100090D1030090E9100090D103009081
:1001B000D1030090D1030090D1030090D1030090AF
:1001C000D1030090D1030090D1030090D10300909F
:1001D000D1030090D1030090D1030090D10300908F
:1001E000D1030090D1030090D1030090D10300907F
:1001F000D1030090D1030090D1030090D10300906F
:10020000D1030090D1030090D1030090D10300905E
:10021000D1030090D1030090D1030090D10300904E
:10022000D1030090F5100090011100900000000033
:10023000D1030090D103009000000000D103009092
:10024000D1030090D1030090D1030090D10300901E
:10025000D1030090D1030090D1030090D10300900E
:10026000D1030090D1030090D1030090D1030090FE
:10027000D1030090D1030090D10300900000000052
:10028000D1030090D1030090D10300900000000042
:0802900000000000D103009002
:1002A00010B5054C237833B9044B13B10448AFF3B0
:1002B00000800123237010BD405B0024000000007B
:1002C000783C029008B5034B1BB103490348AFF3D8
:1002D000008008BD00000000445B0024783C0290D0
:1002E00001F0FF01102A2BDB10F0070F08D010F8E7
:1002F000013B013A8B422DD010F0070F42B3F6D1EB
:10030000F0B441EA012141EA014122F007047FF003
:1003100000070023F0E80256083C85EA010586EA5A
:10032000010685FA47F5A3FA87F586FA47F6A5FA96
:1003300087F68EB9EED1F0BC01F0FF0102F00702A2
:1003400032B110F8013B013A83EA010313B1F8D14D
:100350000020704701387047002D06BF354603382E
:10036000073815F0010F07D1013015F4807F02BF67
:10037000013015F4C03F0130F0BC0138704700BFB8
:10038000DFF834D0002103E00C4B5B5843500431BC
:100390000B480C4B42189A42F6D30B4A02E000235A
:1003A00042F8043B094B9A42F9D306F063FE22F06F
:1003B00087FF00F071F9704700000824DC7002909C
:1003C0000000002440010024405B0024EC6602246D
:1003D000FEE70000000000002DE9F04387B0002494
:1003E0004FF480720123694607464B480494CDE9D7
:1003F0000023CDE9024407F03DF922460C244FF4D6
:100400008071454807F048FB642000F0A9F8013CE2
:10041000FAD101224FF480713F484FF4807507F004
:100420003BFB69463C480494CDE90054CDE90244C5
:1004300007F020F93C2000F093F82946364807F0F1
:1004400025FB20B1FF26304607B0BDE8F0835020E1
:1004500000F086F82946304807F018FB0028F1D054
:1004600028262D4DA0464FF48071284607F00EFB3C
:100470000028F8D14FF48071284607F007FB0028C8
:10048000F8D0232000F06CF824194FF4807128462E
:1004900048EB080907F0FAFAC84608B144F001042D
:1004A000731E13F0FF06DED15FFA89F9C4F3074328
:1004B000C4F30720E5B209EB1462210E1C461A446E
:1004C0000244D2B2AA42BDD11B02220601EB09218D
:1004D00048BF03F4FE430344304607EE903A9FEDD5
:1004E0000C6BB8EEE77B27EE067B9FED096BB7EE52
:1004F000C77B07EE901A87ED007AB8EEE77B27EE10
:10050000067BB7EEC77B87ED017A07B0BDE8F083C5
:100510009A9999999999B93F002002580D4900205C
:100520000D4BD1F8FC2010B442F080720B4CC1F896
:10053000FC20C3F8B04F58601A6842F001021A60FC
:1005400000BF00BF00BF58685DF8044BB0FA80F0F0
:100550004009704700ED00E0001000E055CEACC54A
:1005600070B500230C4C82B00646636065680AF0E3
:10057000E1F90190094A019BA2FB03239B0C06FBB6
:100580000350C54201D302B070BD63688342FAD202
:1005900063688342F9D3F6E7001000E083DE1B4373
:1005A000014900200EF090BA5D1700904FF4FA60F8
:1005B0000B4D0C4C08B50BF0F7FF0BF07FFF2046FE
:1005C000FFF70AFF0BF090FF0023214628681A4628
:1005D0000CF064F942F210700BF0E6FFEDE700BF9B
:1005E000BCB200245C5B002470B59EB04C2200219C
:1005F0000AA822F0ABFD2022002102A822F0A6FDCD
:10060000022009F00FFE224B0021224A0191D96AF3
:1006100021F00101D962DB6A03F0010301939369C0
:1006200043F440439361936903F440430193019B76
:1006300093699904FCD501224FF4803302240826E3
:1006400000250AA81794CDE90A230522A023CDE9A5
:1006500015230423CDE913441893CDE91946CDE9B8
:100660001B5509F075FE40233F22214607930DEBF1
:10067000060002920322099304950392CDE90563D3
:100680004FF4806308930AF0E3F91EB070BD00BF19
:10069000000400580048025880B5002498B0012595
:1006A0001B270326CDE90B44CDE90D4406F0DAFD06
:1006B0004FF01053D3490BA80C93D34BADF82C50EB
:1006C000CDE90D1306F0ECFD4FF010430BA88DF8AB
:1006D00037400C93ADF83A408DF82D508DF83470BA
:1006E00006F0DEFD02230BA8ADF837608DF82D3043
:1006F0001A238DF8343040F20113ADF83A3006F089
:10070000CFFD4FF480730BA8ADF83A400424ADF848
:1007100037304FF050438DF834700C938DF82D60C6
:1007200006F0BEFD18230BA88DF837608DF8343025
:100730008DF82D408DF83A5006F0B2FD204606F0B7
:100740009FFDB24A536913F4003311D1BFF34F8FA9
:10075000BFF36F8FC2F85032BFF34F8FBFF36F8F6D
:10076000536943F400335361BFF34F8FBFF36F8F6F
:10077000A648436913F4803324D1C0F88430BFF312
:100780004F8FD0F8805043F6E076C5F34E34C5F372
:10079000C905640104EA06012B4641EA8372013B64
:1007A000C0F860225A1CF8D1203C14F1200FF1D17E
:1007B000BFF34F8F436943F480334361BFF34F8FDF
:1007C000BFF36F8F06F098FCFFF70EFF62B60024B0
:1007D0008F4DC0218F480F94224601264FF0030908
:1007E00008274FF004084FF0050ACDE90B44CDE986
:1007F0000D44D5F8E03043F48063C5F8E030D5F817
:10080000E03003F480630193019BD5F8E03043F0BE
:100810004003C5F8E030D5F8E03003F04003029320
:10082000029BD5F8E03043F48073C5F8E030D5F88A
:10083000E03003F480730393039BD5F8E03043F07A
:100840001003C5F8E030D5F8E03003F0100304934E
:10085000049BD5F8E03043F00203C5F8E030D5F84A
:10086000E03003F002030593059BD5F8E03043F434
:100870000073C5F8E030D5F8E03003F40073069358
:10088000069BD5F8E03043F00803C5F8E030D5F812
:10089000E03003F008030793079BD5F8E03043F0FE
:1008A0002003C5F8E030D5F8E03003F020030893CA
:1008B000089BD5F8E03043F08003C5F8E030D5F868
:1008C000E03003F080030993099BD5F8E03043F052
:1008D0000103C5F8E030D5F8E03003F001030A93D6
:1008E0000A9B07F0D9F8224680214B4807F0D4F83C
:1008F00022460821494807F0CFF80122484811460E
:1009000007F0CAF822464421464807F0C5F8C0233C
:100910000BA94048CDE90B36CDE90D4906F0AAFEFA
:1009200080230BA93C480B930E94CDE90C6406F090
:10093000A1FE0BA93948CDF838900B97CDE90C648E
:1009400006F098FE0BA93648CDE90B66CDE90D44BB
:1009500006F090FE0BA93348CDE90B86CDE90D4496
:1009600006F088FECDF838904FF040090BA92D48CD
:10097000CDF82C90CDE90C6406F07CFED5F8D4308F
:100980002246052133437A20C5F8D430D5F8D43037
:10099000254D33400093009B06F008FC7A2006F0BA
:1009A00041FC342221460BA822F0D0FB1F4B2A2009
:1009B000AF612B60272340F20A274FF4047C6B6160
:1009C0000B23AC8685F83640C5E9070340F21B13BC
:1009D0002846C5E9097340F21D130227C5E90BC378
:1009E000C5E90144C5E9034409F044F84FF4F07344
:1009F00022460BA90C93284615934FF488730C4D8F
:100A00000E9317E0120000030100010100ED00E069
:100A10000044025800040258000C02580018025802
:100A20000028025800000258A45B00240010005067
:100A30007C5D00241693FF230B9410934FF4806386
:100A40000D94129311941494ADF85C408DF85E40AF
:100A50000F97CDF84CA009F0E1F8384B2846EC6030
:100A60002B60EC65C5E90147C5E91147C5E91344A9
:100A7000C5E9154406F0BCFC3146284606F090FD59
:100A80002F484FF4C0730BA9CDF83CA00B97CDF8BD
:100A90003480C0F80C80C0F814908462C0E9063439
:100AA0004FF4006303624FF48053436207230C93B7
:100AB0000E93244B03601023CDE910770361C0E946
:100AC00001640BF0E9F9204606F0B2F8204606F082
:100AD000F9F800F07DFB1C4B1C48036007F096FF03
:100AE0001B4B1C48036084800662C0E9054406F085
:100AF00009FC00F071FB00F06DFBFFF70FFDC82053
:100B0000FFF72EFD0BF0AEFC134A214613480BF005
:100B100009FD134B134A2146186013480BF002FDE0
:100B2000124B0546124A214612481D600BF0FAFC92
:100B3000114B18600BF0A8FCFEE700BF001000523C
:100B4000705B00244041005200300052245D0024BC
:100B5000004C0258E45D0024383D0290AD05009041
:100B60006C5B0024143D0290E9110090685B002446
:100B7000F03C029011370090645B0024034B026844
:100B80009A4200D0704706F0E7BA00BF001000405C
:100B9000704700BF0B4B00220F216FF0010010B413
:100BA000D3F8F44083B044F00204C3F8F440D3F81F
:100BB000F43003F002030193019B03B05DF8044B92
:100BC00006F0F4BA004402580A4B02689A4200D078
:100BD0007047A3F5006382B0D3F8E02042F400220E
:100BE000C3F8E020D3F8E03003F400230193019B25
:100BF00002B07047004C02580F4B02689A4200D076
:100C000070470E4B5A200022052110B5D3F8D4406E
:100C100082B044F01004C3F8D440D3F8D43003F0C9
:100C200010030193019B06F0C1FA5A2002B0BDE8FF
:100C3000104006F0F7BA00BF0010005200440258FE
:100C40003F4B02689A4200D0704770B53D4B11226D
:100C50003D4E82B03D4D044672603046D3F8D420FC
:100C60003B4942F02002C3F8D4208022D3F8D4308C
:100C7000326203F020033160019300230199336154
:100C8000C6E902324FF0007272622022C6E90633D2
:100C9000C6E90D33B2624FF400334FF4A042C6E907
:100CA0000B2313236B600223736109F0ADF8002856
:100CB0003AD100222448114609F044F900283CD1D9
:100CC0002022002326631320EA61AA624FF4203217
:100CD0002049AB602B62AB633464C5E90C23C5E9E2
:100CE00004330823C022C5E90010AB614FF4A041D2
:100CF0004FF000731548E962EA606B6209F084F80E
:100D0000C0B900221148114609F01CF978B9656391
:100D10007920002205212C6406F048FA792002B0DF
:100D2000BDE8704006F07EBAFFF732FFC1E7FFF77B
:100D30002FFFECE7FFF72CFFE3E7FFF729FFBFE703
:100D40000030005200440258B85C00244C5C00247F
:100D500000020052C001005270B5BAB00021044632
:100D6000C0220AA80991CDE90511CDE9071122F0A9
:100D7000EDF94A4B22689A4201D03AB070BD022385
:100D800005224FF000540025A021169314925322FF
:100D900017934FF400630AA81591CDE90A45CDE9F0
:100DA00018230AF01FF9002874D13D4B02240025B6
:100DB0000E26D3F8E42005A93A4842F00802C3F809
:100DC000E420D3F8E42002F008020092009AD3F85D
:100DD000E02042F48062C3F8E020D3F8E02002F47F
:100DE00080620192019AD3F8E02042F48072C3F845
:100DF000E020D3F8E02002F480720292029AD3F845
:100E0000E02042F40072C3F8E020D3F8E02002F4BE
:100E100000720392039AD3F8E02042F08002C3F8F4
:100E2000E020D3F8E030089403F08003099604939F
:100E3000FC23049A0593CDE9064506F01BFC4DF210
:100E4000032305A918480593CDE90645CDE90846D1
:100E500006F010FC4FF6FB7305A914480593CDE985
:100E60000645CDE9084606F005FC4FF4007305A9D8
:100E70000F480996CDE90534CDE9075406F0FAFB91
:100E80002A460521582006F091F9582006F0CAF9A3
:100E90003AB070BDFFF77CFE87E700BF001000503E
:100EA000004402580028025800200258002402582A
:100EB000001C025836480023D0B50168B8B0CDE90F
:100EC0000233CDE90433069309B138B0D0BD012314
:100ED000B82203600AA822F039F94FF0807200238B
:100EE00008A8CDE908230AF07DF800284CD1294B49
:100EF0004FF6837002210C24D3F8D4200026032758
:100F000042F48052C3F8D420D3F8D430069403F4CA
:100F10008053CDE90201019302A91F48019BCDE94D
:100F2000046706F0A7FB48F23312022302A91B480C
:100F30000694CDE90223CDE9046706F09BFB4CF251
:100F40000372022302A916480694CDE90223CDE9D3
:100F5000046706F08FFB4FF63F02022302A91148F7
:100F60000694CDE90223CDE9046706F083FBE02275
:100F7000022302A90C480694CDE90467CDE90223B7
:100F800006F078FB38B0D0BDFFF702FEAFE700BF38
:100F90000C5E002400440258001002580018025849
:100FA000000C025800140258001C0258134B1A6817
:100FB00002B1704710B5124A01244FF683711148EF
:100FC0001C60D2F8D43023F48053C2F8D43006F039
:100FD00093FC48F233110C4806F08EFC4CF203717E
:100FE0000A4806F089FC4FF63F01094806F084FCE8
:100FF000E0210848BDE8104006F07EBC085E0024F1
:10100000004402580010025800180258000C025800
:1010100000140258001C02580F2801D90120704703
:1010200030B501468BB000220446362006F0BEF8EB
:10103000362006F0F7F81B4B1B4A694602A81460DD
:10104000D3F8E82042F01002C3F8E820D3F8E830E3
:1010500003F010030193019B09F0B4FE079BC3B991
:1010600009F020FE034611490022114CA1FB031395
:10107000104D40F2E73120469B0C2560A260013BF9
:10108000C4E9031263600AF079FF30B101200BB0AC
:1010900030BD09F007FE4300E5E720460BF00CF8F1
:1010A000F5E700BF004402586000002483DE1B43C4
:1010B000105E002400100040704700BFFEE700BF34
:1010C000FEE700BFFEE700BFFEE700BF704700BFBE
:1010D00001480BF04BB800BF105E0024014808F037
:1010E0003BBD00BFA45B0024014806F0C5B900BFAA
:1010F0007C5D0024014808F021BC00BF245D002471
:10110000044808B508F0D0FF0348BDE8084008F0DF
:10111000CBBF00BF4C5C0024B85C002401207047AA
:1011200008B522F0C7F8162203464FF0FF301A60C8
:1011300008BD00BF08B522F0BDF816230360FEE726
:1011400070B5161E07DD0C468D19AFF3008004F84C
:10115000010BA542F9D1304670BD00BF70B5161E17
:1011600007DD0C468D1914F8010BAFF30080AC427B
:10117000F9D1304670BD00BF4FF0FF30704700BF5F
:101180004FF4005300204B60704700BF01207047B0
:10119000002070470C4A08B50346106828B1034484
:1011A00069468B4208D8136008BD0849084611609B
:1011B000694603448B42F6D922F07CF80C220346A0
:1011C0004FF0FF301A6008BD5C5E0024F066022418
:1011D000704700BF704700BF08B501F0E5FEBDE8ED
:1011E000084001F069BE00BF01F0E0BE40687047F2
:1011F000416070474FF0E020084B094AD0F8FC1DD1
:1012000041F08071C0F8FC1DD3F8B01F0A43C3F849
:10121000B02F1A6842F001021A607047001000E017
:1012200055CEACC5521A02EB5302B2FBF3F0704735
:10123000014B5868704700BF001000E0704700BFC6
:1012400010B504460C2121F0B6FC204610BD00BFAD
:1012500003680C4A1B6910B5044649B193420DD18D
:10126000094B5868A26863689B1A0344636010BD09
:10127000934205D1044B5868A06010BD9847F1E730
:101280009847F9E731120090001000E0704700BF66
:1012900000B585B008220023002069469FED067B3B
:1012A000CDE902238DED007B05F0F6FD05B05DF87C
:1012B00004FB00BFAFF30080E0010000100100005C
:1012C00030B585B000200D46144601A90190CDE946
:1012D000020005F06FFE019820B10120DDE9022334
:1012E0002A60236005B030BD10B50446042121F00A
:1012F00062FC204610BD00BF08B50023032B2BD88D
:10130000DFE803F020160C024021144806F0BEFB73
:10131000012801D1124BD8600423EFE74021114886
:1013200006F0B4FB012801D10D4B98600323E5E7DB
:1013300080210C4806F0AAFB012801D1084B586017
:101340000223DBE70821084806F0A0FB012801D1B1
:10135000034B18600123D1E708BD00BF000002580D
:10136000605E00240004025800180258032827D8A1
:10137000DFE800F01D140B02124B40211248DA681E
:10138000B2FA82F2520906F087BB0E4B40210F4899
:101390009A68B2FA82F2520906F07EBB094B8021AC
:1013A0000A485A68B2FA82F2520906F075BB054B38
:1013B000082107481A68B2FA82F2520906F06CBB9B
:1013C000704700BF605E002400000258000402580D
:1013D00000180258032827D8DFE800F01D140B027C
:1013E000124B40211248DA68003A18BF012206F079
:1013F00053BB0E4B40210F489A68003A18BF012298
:1014000006F04ABB094B80210A485A68003A18BFC7
:10141000012206F041BB054B082107481A68003A33
:1014200018BF012206F038BB704700BF605E002481
:10143000000002580004025800180258032813D86C
:10144000DFE800F00E0A06024021084806F028BB3B
:101450004021074806F024BB8021054806F020BB48
:101460000821044806F01CBB704700BF000002586A
:10147000000402580018025800207047012380F829
:10148000741080F875307047002070470A1E034BB7
:10149000416418BF01221A70704700BF0B63022419
:1014A00000207047836B084603B11847704700BFA0
:1014B0004FF6FF70704700BF704700BF08B5094B7B
:1014C0001B888B4208D8084B1B88934204D80748D6
:1014D000074B01801A8008BD064B9E21064A07482B
:1014E00021F098FB006302240263022406630224B5
:1014F000086302249C3D0290003E0290443E02900C
:1015000010B504460FF054FE23682046D3F8AC30E3
:10151000BDE81040184700BF01F022BE01F026BE12
:1015200010B501F0E5FE12480023C0F88430BFF387
:101530004F8FD0F8803043F6E074C3F34E3CC3F3D2
:10154000C90E4FEA4C1C0CEA0401734641EA83724F
:10155000013BC0F874225A1CF8D1ACF1200C1CF1EC
:10156000200FF0D1BFF34F8FBFF36F8F10BD00BFBF
:1015700000ED00E001F0D0BD01F0E0BF01F0CABF16
:1015800001F0D4BD0FF06CB810B50446882121F0ED
:1015900012FB204610BD00BF90F874C090F83410C4
:1015A0000B4B8C451A780BD04AB90A4A4FF0010C04
:1015B0000949108883F800C00B88088013807047A1
:1015C000002AFCD0034A4FF0000C0349F1E700BFAA
:1015D000046302240263022400630224034690F899
:1015E000770018B1586803681B681847704700BF38
:1015F0004068044A03689B69934201D10020704708
:10160000184700BF79140090A9B10264003AC16381
:1016100018BF01220C490A7002680C49D2F88C20CC
:101620008A4206D1191E0A4A436418BF012111706B
:10163000704719461047074B40F2D221064A074827
:1016400010B521F0E7FA00BF0A6302248D14009060
:101650000B6302248C3E0290C43E0290443E0290F2
:1016600008B503680446174DD3F8803098472368BF
:1016700020469B6F984701F0BFF8236820461B6FF8
:10168000984701220421104806F006FA0122802121
:101690000E4806F001FA01220D48114606F0FCF949
:1016A00001F0AAF8236820461B6FAB4207D10FF068
:1016B0007FFD23682046D3F8AC309847F0E7984781
:1016C000EEE700BF0115009000000258000C025820
:1016D0000028025838B5044601F03AFF174823683D
:1016E000E16BD3F88850226C854219D1F9B1003AE8
:1016F0001349D3F88C3018BF012212488B4212498B
:10170000027011D1114B012261641A7004F17C0541
:101710002846FFF76FFD0123256184F86C3038BD42
:10172000094B2046A847F1E720469847EEE7084BCB
:1017300040F2D221074A084821F06CFA09160090BD
:101740008D1400900A630224000000D00B63022471
:101750008C3E0290C43E0290443E0290014608B581
:10176000054B186821B101210FF03CFD012008BD97
:101770000FF038FD012008BD0C630224406970475A
:1017800090F84000704700BF036B0BB10120704719
:10179000C06A003818BF0120704700BF80687047DA
:1017A000704700BF04308C460FC88CE80F007047AC
:1017B000704700BF08B5034A4FF4E771024B034876
:1017C00021F028FAF03F0290EC3F02904C4002904A
:1017D00010B50446482121F0EEF9204610BD00BFA7
:1017E0002DE9F04F85B00446DFF8C8B10390022020
:1017F000CBF81000E068040702D020F00F00103092
:10180000CBF8000000094FF470745D4ECBF80C006B
:1018100000EB40005B4DC0015B4FDFF89CA10090E6
:101820000398CBF804400069584C00F00F00DFF833
:101830008C812360C0F11000554BDFF88491CBF808
:1018400008000020534C1860534B30601860534B15
:1018500028701960524BA8601A604FF48032514BC7
:1018600028731860012368613860CAF800304E4858
:101870006B6807F0FDF9D8F800301BB14B4B1B68C3
:10188000002B7BD13B6803EB430215F8221005EBDC
:101890008202012941D03368012B29D03368C3B9B2
:1018A000DAF80030B3FA83F35B095B002360236846
:1018B000022B13D02368012BDDD100233B4AC9F84A
:1018C0000C30C8F800301360C9E9013305B0BDE839
:1018D000F08F002323602368022BEBD1344B4FF0B1
:1018E000FF3118680AF042FF2368012BC3D1E4E7F7
:1018F000274B1B6803EB430315F82330002BCDD196
:101900003B6803EB430315F82330002BC6D10221BB
:101910002548336007F0F0FAC0E7DAF80010012933
:10192000B9D101331F49D9F80000022BD1F800C00A
:1019300028BF00233B60D9F80830591C023349F80E
:1019400033C009EBC3035A60039AB1FBF0F300FB09
:101950001311506CD9F80C20C9F808100132114944
:10196000C9F80C200B68DBF80C2013440B60002333
:10197000CAF8003003681B6998478CE7012395E794
:10198000C45E002404000024CC5E0024E05E002439
:10199000C85E0024B85E0024DC5E0024D45E00240F
:1019A000D85E0024AC5E0024245D0024C05E0024C8
:1019B000A85E0024705E0024BC5E0024D05E00247B
:1019C000885E0024F8B5036801292B4E0446DB6AC3
:1019D00038BF0121B3420D4635D18668B1423DD9A9
:1019E000731EE269206B02EB031738B3A36B0F2B56
:1019F00036D9036807F10805DB6829469847206B4C
:101A00001022616B03681B69984798B1236BE563EB
:101A1000A3B1626B937A517A1B0443EA0123117AD2
:101A2000D27A0B4343EA0263226A6661043A1A449B
:101A3000A261F8BD0D2384F84030E7E707F11003F9
:101A4000E26AD358F0E79847854207D92368DB6AF2
:101A5000B3420ED0204698470646C1E72E46BFE760
:101A60000920064B064AA72184F84000054821F0CA
:101A7000D1F8A668B4E700BF9D170090A04002907F
:101A8000B44002904C4002902DE9F04F0446006BA8
:101A900083B01546A669002800F0E280A36B072BEF
:101AA00040F2E58003683146DB689847206B0822E6
:101AB000616B03681B699847002800F0CD80A3691B
:101AC000206B1A1D03F10807E663002800F0D88098
:101AD000921BD4E90D63B118B25C8E7891F801C005
:101AE000360446EA0C261643CA7846EA0266B34232
:101AF000C0F0BD8003683946DB689847206B3246EA
:101B0000616B03681B69984710B90D2384F8403056
:101B1000616BE763002D53D05A4A5B4BD2681D605E
:101B2000002302EB4202594D594FD2012B703B600A
:101B3000AB602B736B610092564ADFF884811360AF
:101B4000554ADFF880A11160544ADFF87CB1166075
:101B5000534AC8F8003013604FF48032CAF800309E
:101B600001235048CBF800306B68DFF860914E4E8F
:101B700007F07EF808E0DBF80030B3FA83F35B0986
:101B80005B0033603368DBB9D9F800301BB1474BD9
:101B90001B68002B5ED1D8F8002002EB420315F839
:101BA000231005EB8303012924D03B68012B0BD0C4
:101BB0003B68002BDFD0002333603368002BE3D079
:101BC000012003B0BDE8F08FDAF8003003EB4303E7
:101BD00015F82330002BEBD1D8F8003003EB43038A
:101BE00015F82330002BE3D102212E483B6007F08B
:101BF00083F9DDE7DBF800100129D6D1013228484E
:101C0000022AD0F800E0D0F800C028BF0022C8F8AF
:101C10000020274AD06891680130D060481C02310A
:101C200042F831E002EBC1014B6013681168B0FB70
:101C3000F3F301FB1300134BDB6890606344184817
:101C400003600023606CCBF80030636C1B681B6979
:101C50009847AAE7012394E70D2384F840302EE744
:101C6000321DE16A06F108038E58194452E7092033
:101C7000104B114AA72184F84000104820F0CAFFF9
:101C80001E46EEE7705E0024E05E0024040000249F
:101C9000C45E0024DC5E0024D45E0024D85E0024F0
:101CA000AC5E0024245D0024B85E0024C05E0024E5
:101CB000885E0024A0400290B44002904C40029004
:101CC000CC5E0024C85E0024BC5E0024D05E0024EC
:101CD00043692DE9F047002B00F098800546006B22
:101CE000AC69002800F08280AB6B072B40F2838048
:101CF00003682146DB689847286B0822696B0368F4
:101D00001B69984700286DD0AB69286B1A1DEC63DE
:101D100000286DD0121B6C6BA118A25C8C784E78D9
:101D2000240444EA06241443CA7844EA02640D27D2
:101D300043F2300639E0AB6B072B5CD903682146D0
:101D4000DB689847286B0822696B03681B69984712
:101D500008B985F84070286BAA69EC63002853D055
:101D6000121B696B8B18895C9C7993F805A024047D
:101D700093F804E093F8019044EA0A2493F807C02A
:101D800093F8038041EA09219A7844EA0E0442EA72
:101D9000082344EA0C6446F26432B14208BF93421D
:101DA0000CBF012100211AD0AB691C44AB6A04F1BD
:101DB00008029A420ED26B690934013324F00104FF
:101DC000C5E905340028B6D1EB6A1A19195B5388A6
:101DD0005468E0E701222B6A0021C5E90523084683
:101DE000BDE8F0870D2385F840308DE7221D23469E
:101DF000E96A8C589BE70920074B084AA72185F818
:101E00004000074820F006FF1446DDE7054BED21B2
:101E1000054A034820F0FEFEA0400290B440029024
:101E20004C400290F84002904441029043692DE9F1
:101E3000F041002B00F09B800446006B0E46A56924
:101E4000002861D0A36B072B40F2978003682946D6
:101E5000DB689847206B0822616B03681B69984711
:101E600000284CD0A169206B8A1C01F1040CE563A9
:101E7000002848D0636BACEB050C521B4D1B03EBE9
:101E80000C0E13F80C7003EB050813F805C098F856
:101E900001509EF801804CEA052C9EF802509EF8F5
:101EA00003E02D0445EA08253D4345EA0E6503EBB2
:101EB000020E9B5C9EF8012043EA022301EB050E13
:101EC000A76A0EF10802BA4212D243F23007BC45AB
:101ED00023D146F26437BB421FD115BB0132636A7E
:101EE00022F001029A42A26102D00120BDE8F081F5
:101EF0000122236A00206261A361BDE8F0810D2305
:101F000084F84030AEE70D46E26A2946002032F8F8
:101F100005C02A4453885568D0E7002D18BF724683
:101F2000DCE701F10807A761F0B1A36B9D4224D85B
:101F300003683946DB689847206B2A46616B036863
:101F40001B69984710B90D2384F84030616BE76333
:101F500026B133462A462046FFF742FCD4E9053233
:101F600001332A446361B9E7E16A3944F0E7074B7A
:101F7000B921074A074820F04DFE0920064B074AC1
:101F8000A72184F84000034820F044FEF840029066
:101F9000784102904C400290A0400290B4400290E0
:101FA00038B500250F4B04460360C56380F84050E8
:101FB000C0E90555C0E90755C0E90955C0E90B5509
:101FC000C0E90D55C0E90355C0E9015502F04AFAD0
:101FD0002A46294601200AF07DFB034B0246204693
:101FE0001A6038BDF8420290A85E00242DE9F84F2F
:101FF0000021066B0546816180F84010002E00F03C
:10200000A981836B472B40F2068233683046DB6838
:102010009847286B4822696B03681B69984700281A
:1020200000F0B78000232E6BAF69B246EB63002E41
:1020300000F09181D5F834900422BE4909EB0704E1
:10204000204621F08BF8002840F0F58107F10800C8
:102050000422B949A861484421F080F8002840F0E2
:10206000FE8107F10C0B0422B44909EB0B00C5F803
:1020700018B021F073F88046002840F0E681A37C78
:10208000627C1B0443EA0223227C1343E27C53EA72
:10209000026400F0C98107F114000422A8494844F1
:1020A00021F05CF8002878D0062307F1180085F8A5
:1020B000403048445C440422A249083421F04EF8E0
:1020C000002800F0DC80072385F84030BAF1000FCB
:1020D00000F07681AB6B0B2B40F29D81DAF800307B
:1020E00021465046DB689847286B0C22696B0368D1
:1020F0001B699847002800F0178195F840A02E6BC7
:10210000EC63DFF848824FF00D0903E095F840A03A
:102110002E6BEC6304F10807002E48D0EB6B042211
:10212000686B4146FB1A184421F018F8002847D084
:10213000BAF1000F40F09E80AB6AA34243D9043449
:1021400086B3EA6BD5E90D13A41A0B2B01EB04023D
:10215000095D947850784FEA0444D27844EA002428
:1021600044EA010444EA02643C4440F25481336886
:1021700021463046DB689847286B0C22696B036860
:102180001B6998470028C1D14FF00D0A85F840908F
:10219000BEE70D2385F8403044E707F118004FF003
:1021A000010886E7EB6A1C593C4404F10807E86A19
:1021B000042241460026384420F0D0FF0028B7D141
:1021C000BAF1000F56D104F10C030434AB61002EB8
:1021D00000F01981EB6BE41AD5E90D1204F1020E3F
:1021E00004F1010C11F80480E01C11F80E30032AF0
:1021F00011F80C904FEA034343EA092343EA08032A
:1022000011F8008043EA08633B446B6211F80E301A
:1022100011F80CE011F804C04FEA0344095C44EAE9
:102220000E2444EA0C0444EA01643C4440F2F38086
:10223000336821463046DB689847286B0422696B77
:1022400003681B699847002800F0BD802B6BEC6386
:10225000002B00F00E81686B04223B4920F07EFFCA
:10226000002840F0CB800122AB69EC616A612B62EF
:10227000BDE8F88F0A2385F84030BDE8F88FB8F143
:10228000000F3FF423AF07F12003BAF1000F00F075
:10229000A480EE6B6A6B9B1BC6F13000C6F1400157
:1022A000C6F1440602EB030E12F8038038443944A9
:1022B0009EF802303E449EF801701B04DFF890C087
:1022C00043EA07239EF8037043EA080343EA0763DF
:1022D0001718ACFB03C39B096B60BB7897F801E050
:1022E0001B0412F800C0FF78501843EA0E2343EA9B
:1022F0000C0343EA0763AB60837847781B04515CA7
:1023000043EA07230B43C17843EA01639119EB6069
:102310008B7848781B04925D43EA00231343CA7804
:1023200043EA02632B61D5E60D239A4685F84030D7
:10233000E5E600BFD44102908C42029084420290B4
:10234000584202906C4202907C4202907442029089
:10235000D34D62103746D5F82C900422464909EB3C
:102360000704204620F0FAFE002864D107F1080097
:1023700004224249A861484420F0F0FE00286ED1B2
:1023800007F10C0B04223E4909EB0B00C5F818B00D
:1023900020F0E4FE8046002857D12469002C43D069
:1023A00007F1140004223749484420F0D7FE70B9E1
:1023B00007F118004FF0010848444FF0000A79E691
:1023C00095F840A09DE60D2385F840303EE70623B2
:1023D00007F1180085F84030EEE7EA6A95F840A06A
:1023E000D158D319284AA2FB011292096A601A6BCC
:1023F000AA601A6CEA605B6C2B6182E60B2385F89D
:102400004030BDE8F88FE86A03593B446B620459D9
:102410003C44204420E709201C4B1D4AA72185F895
:1024200040001C4820F0F6FB1B4B4FF4A5711B4AE3
:10243000184820F0EFFB0320194B184A40F23511E1
:1024400085F84000134820F0E5FB0520154B134AA2
:102450004FF4A27185F840000E4820F0DBFB042009
:10246000114B0E4A40F23D1185F84000094820F01A
:10247000D1FBE86A2044EFE6D44102908C420290FE
:102480008442029058420290D34D6210A0400290C4
:10249000B44002904C40029060420290F841029099
:1024A000DC410290404202902842029010B4002485
:1024B000C0E90A2104635DF8044BFFF797BD00BF34
:1024C00010B50B680446002208469B68C4E90B213E
:1024D000984703462046A362BDE81040FFF786BD3B
:1024E00008B54B680846012B1AD0022B10D04BB907
:1024F000CB6859072FD183685A0703D023F007030D
:10250000083383601A4A1B490DF054FD40BB08BDD7
:10251000CB681A07EFD023F00F031033CB60EAE744
:10252000CB681A0703D023F00F031033CB60836806
:10253000190703D023F00F03103383600C4A0D49B1
:1025400001F006FF0028E2D00B4B40F231210B4A8C
:102550000B4820F05FFB23F007030833C360CAE792
:10256000054B40F25321054A054820F053FB00BFBC
:10257000B45E0024B05E002494420290A84202900F
:102580004C40029010B40C4C0C4A236812680B4467
:102590009342236002D35DF8044B7047D21A084B74
:1025A0001C68B2F5803F214428BF4FF480325DF8AB
:1025B000044B196006F0D2BBDC5E0024D85E002418
:1025C000D45E0024F8B51B4E05463368591C01291A
:1025D00023D90020014603EB4303174C0127306049
:1025E0009B00E75423449A6001EB410314F8232035
:1025F00001FA07F39AB9114A0B442846D26804EB52
:10260000830402EB42026168D20106F0ABFB0C4B83
:102610001868BDE8F8400AF0DBB80846DBE702219D
:10262000284606F063FB074B31681F6001FA07F389
:10263000E1E700BFC85E002404000024705E0024AF
:10264000A85E0024C45E002472B6FEE7014B01229E
:102650001A607047D05E0024F0B51B49022306685B
:102660001A4D0A686B633301194C0F692468B3FB78
:10267000F2FC02FB1C324B6803FB0CFCCB6807FB33
:1026800002F2E41A4FEA0C1C4FEA035EA64217D38B
:1026900089684EEA010169640E49C3F11E0340686E
:1026A000002409681B0140681144084A6144D16351
:1026B00013640949094B1461D161D0601360F0BD06
:1026C0004EF010016964E7E7705E002400100052CC
:1026D000B45E0024E05E00240B0009FF010201004B
:1026E000002243680B491A70C9689A6011B90A4BF5
:1026F00001221A60094B0A491B68C96802685B1A03
:102700009A4202D3074B01221A60074B18680AF05D
:102710005FB800BF885E0024BC5E0024B45E002465
:10272000705E0024C05E0024A85E0024000000004B
:102730009FED057B064B0020002183ED007BC3E964
:1027400002017047AFF300800200000000000000AB
:10275000885E00240121002208B5084609F0BAFF6E
:102760000B4B186040B10022042101200AF05AF8F6
:10277000084B186030B108BD074B2821074A0848AC
:1027800020F048FA074B2C21044A054820F042FA71
:10279000E85E0024E45E002434430290804302900B
:1027A000B0430290F8430290024B4FF0FF3118689B
:1027B00009F0DCBFE85E0024014B18680AF008B895
:1027C000E85E0024024B0021186809F0CFBF00BF6B
:1027D000E85E0024014B186809F0FABFE85E0024A7
:1027E0000348002303491A4600680AF057B800BF9F
:1027F000E45E00241C00002410B5002382B0074CC6
:102800001A4601A920680AF085F84FF0FF3300222C
:1028100001A920680AF07EF802B010BDE45E002431
:1028200003685B6C184700BF0120704705494FF0F3
:102830008062054B0160C3F88820BFF34F8FBFF360
:102840006F8F70479C45029000E100E00F4B82B013
:102850000F49D3F8D4200F4842F010020862C3F8A1
:10286000D420D3F8D42002F010020192019ADA6F3A
:1028700042F01002DA67DA6F22F01002DA67064BD4
:102880004FF080629A6002B0704700BF0044025867
:102890007C5D0024152C009000E100E040F2EF3058
:1028A000704700BF09494FF08062094B10B50160C5
:1028B0000446C3F88820BFF34F8FBFF36F8F40F6F5
:1028C000A85120F078F9204610BD00BF9C45029029
:1028D00000E100E010B504464FF0FF31D0F8A40D40
:1028E00009F0B2FE606803681B68984778B9637A9C
:1028F0006BB1237A2BB92268204684F8A03D536A35
:102900009847D4F8A40DBDE8104009F0C1BE0B4BA8
:10291000DA68002AF5D0227A002AF2D1586801221A
:10292000023084F8A02D227203EBC000FFF794FE62
:10293000D4F8A40DBDE8104009F0AABE885E0024BA
:1029400038B590F8A03D044643B903689B6A9847A0
:10295000154BDA680AB1227AD2B138BD124BDA6867
:10296000002AFAD0017A0029F7D00021013AD3E9F0
:1029700000502172411CDA600230B1FBF5F205FB18
:10298000121103EBC0005960BDE83840FFF7A8BE44
:1029900058680122023084F8A02D227203EBC00097
:1029A000BDE83840FFF758BE885E002470B58B7FC5
:1029B0000A2B3DD8DFE803F03A062A3C3C3C3C06B3
:1029C000060606000124B1F814C0C88A4A8B1B4BC6
:1029D00040EA0C400D69A2EB0C025C635864DD63B5
:1029E0001A640E68C868082E12D0020A0025410930
:1029F000C0F3C40002F47842DC6101F4FC611D61A3
:102A00000A430F4902439A63196070BD0024DAE754
:102A10009A611A615C620B4A097F42EA01620A49C3
:102A2000DA6118625D61DD60196070BD0224CAE779
:102A3000064B8821064A074820F0ECF800100052A7
:102A40000102030009000100010202003C4402905F
:102A500058440290A4440290F8B591F81DE0BEF1EC
:102A60000B0F00F2AC80DFE80EF05B6046AAAAAA6A
:102A7000AA0606060606052691F81EC0BCF10B0F35
:102A800000F29D80DFE80CF04E490D9B9B9B9B065E
:102A900006060606BCF10B0F00F0978005240127FF
:102AA00001E0002427468B8A4A8B0D8BC88AD21AF4
:102AB000ED1A40EA03404B4B1A649A611D614A6863
:102AC0000D695F635864DD63DA600A680F7F802AEE
:102AD0004FEA07602ED010D8202A28D0402A26D0CE
:102AE000042A5AD13043404A40F40030D8615C6235
:102AF0005D611A60F8BD0026BEE7B2F5807F59D04F
:102B0000B2F5007F49D1394A0243DA61364AC968D1
:102B100019625C625D611A60F8BD01242746C2E754
:102B20000226A9E702242746BDE70126A4E7304391
:102B30002C4BD8E78A683043111D40F40030D9622D
:102B40001178D8615C625D61B1B951880127D8699B
:102B5000274A0139024042EA0122DA61214AD36957
:102B600043F02003D361D3699B06FCD41023936008
:102B700017B31D4B1360F8BD01292CD15188FF3FBD
:102B8000D8691B4A01F1FF3118BF0127024042EA10
:102B9000012242F01002DA61E0E7E64546EA00066B
:102BA000104B46F4003614BF124A40F20122DE6197
:102BB0001A60F8BD104AA7E70E4B1360F8BD0F4B23
:102BC00067210F4A0F4820F025F80C4B88210E4A48
:102BD0000C4820F01FF80D4B4FF489710C4A09483E
:102BE00020F018F800100052010202000900020053
:102BF000EF00FFFF010201000A0002003C440290C6
:102C0000EC440290A444029058440290384502904B
:102C1000544502901F4B20491B6870B55C682368BF
:102C20005A698A4225D194F8A02D42B99B6A204660
:102C300098471A4BDA680AB1227AF2B170BD174B85
:102C4000DA68002AFAD0217A0029F7D00021013A67
:102C5000D3E900502172411CDA600230B1FBF5F279
:102C600005FB121103EBC000BDE870405960FFF78F
:102C700037BD2046BDE87040104758680122023039
:102C800084F8A02D227203EBC000BDE87040FFF76E
:102C9000E3BC00BF0C63022441290090885E00243D
:102CA00070B5104B0646044600250C306022357284
:102CB0007572706044F8203B21460EF0BDFB214642
:102CC00006F55A63CD6024319942FBD186F8A05DA8
:102CD0000020C6F8A45D09F075FC03463046C6F82E
:102CE000A43D70BD9C450290012070470C207047A8
:102CF00001EB410100EB81000830704701EB41011D
:102D000000EB810008307047012070474FF4F470E9
:102D1000704700BF4FF4F47303FB010008307047A5
:102D20004FF4F47303FB0100083070470120704733
:102D30001020704700EB01100830704700EB0110C5
:102D400008307047084602F075BA00BF034B10B553
:102D5000044603600DF0DBF9204610BD5446029096
:102D6000054B10B5044603600DF0D1F9142120463F
:102D70001FF021FF204610BD54460290034B10B5B2
:102D8000044603600DF0C3F9204610BD20460290B2
:102D9000064B10B5044603600DF0B9F94FF4F87115
:102DA00020461FF008FF204610BD00BF20460290BD
:102DB000034B10B5044603600DF0A9F9204610BD81
:102DC000EC450290054B10B5044603600DF09FF9E9
:102DD000182120461FF0EFFE204610BDEC45029062
:102DE00010B50C4A04460C4B00F507702260C4F87D
:102DF0001C320DF08CF92046084B40F82C3F0DF0AA
:102E000086F92046064B40F8143F0DF080F9204625
:102E100010BD00BF884602905446029020460290A2
:102E2000EC45029010B50C4C0C4A0D4B04F50770A4
:102E30002260C4F81C320DF06AF92046094B40F8B4
:102E40002C3F0DF064F92046074BBDE8104040F8D8
:102E5000143F0DF05CB900BFA06D002488460290BD
:102E60005446029020460290EC45029010B50E4A5E
:102E700004460E4B00F507702260C4F81C320DF0BA
:102E800046F920460A4B40F82C3F0DF040F9094B1B
:102E9000204640F8143F0DF03AF920464FF4647193
:102EA0001FF089FE204610BD8846029054460290CD
:102EB00020460290EC4502902DE9F04182B00024BA
:102EC00001F0DCFF054601F0DDFF23460146224606
:102ED0002846009414F07AF8284B294A2046294CB9
:102EE0001A6002F0B9FE284813F0D8FF2368BFF338
:102EF0005B8FDB0705D5254802B0BDE8F041FEF742
:102F0000E9BB20461FF059FE0028F4D0204D214B8C
:102F100005F50D7605F1140005F12C0805F5077788
:102F20002B60EF602E61C5E901080DF0F1F81A4B36
:102F300040466B610DF0ECF8184B3846EB620DF033
:102F4000E7F8174B05F50C70C5F81C3202F006FFC8
:102F50002A4605F50C71304602F0F4FE304602F0C8
:102F600069F910481FF074FE20461FF032FE074832
:102F700002B0BDE8F041FEF7ADBB00BF68630224BC
:102F8000745F00249C6D002420000024EC5E00246B
:102F9000A06D002488460290EC45029020460290E5
:102FA00054460290252E0090704700BF0148FEF75E
:102FB00057BB00BFEC5E002470B5264E264B274C55
:102FC0003046274D2360FFF76BFE284617F008F9BF
:102FD000244B00224FF4F0704FF48871DA621A86A5
:102FE0009A6683F86C201A67C3E903421E4C5C663C
:102FF0004FF080745C67012483F878401B4C236099
:103000001B4C20801B4CC3E9016520804FF4807568
:10301000194C1A489D64C3E90522C3E90722C3E994
:103020000922C3E90E22C3E91022C3E91322C3E92E
:103030001522C3E9172221800180114C1148124941
:10304000C3F88020227083F834201860C3F88420ED
:10305000D96770BDF05F00248C3D0290986D00240C
:10306000785F0024EC5E0024010000010C63022460
:10307000006302240663022402630224086302241C
:10308000046302241C3F0290643D02900148FFF754
:10309000CDBB00BFF05F002490F8252012B103687B
:1030A0005B691847704700BF0020704781807047F8
:1030B000C18070470181704741817047704700BFF0
:1030C000704700BF704700BF704700BF704700BF28
:1030D000B0F806C00368A2EB0C02B0F804C05B6D48
:1030E000A1EB0C0112B209B2184700BF13684FF6EA
:1030F000FF7C4FF0FF31A0F80CC0C0E90731106031
:10310000704700BF90F825201AB190F8242002B132
:103110001860704700207047034B902283F85A23B1
:1031200083F85823704700BF00E100E0094A0A49CC
:10313000D3680A48C3F30A03013B9BB20B801169B1
:10314000C1F30A01013901801364536B43F0010399
:103150005363704700100050327100243071002416
:10316000014BD3F8AC00704700100050024B012215
:10317000C3F8AC105A62704700100050C0E90C123E
:1031800081637047704700BF00EB810011464068C3
:103190000368DB68184700BF10B5044648211FF0DC
:1031A0000AFD204610BD00BF11B990F829007047F4
:1031B00008B5034A4FF4B871024B03481FF02AFDCB
:1031C000A8460290944602903448029021B9406883
:1031D000114603681B6B1847034B4FF4B571034A44
:1031E000034810B51FF016FD9446029078480290EF
:1031F0003448029009B9C068704708B5024A79217D
:10320000024B03481FF006FD284A029094460290A4
:103210003448029010B50C4651B9844640681146B6
:103220001A460368CCF80C409B68BDE8104018476C
:10323000024B9021024A03481FF0ECFC9446029096
:10324000DC4B02903448029021B9C0E90411C0E976
:103250000632704708B5034A8221034B03481FF02A
:10326000D9FC00BFB84D02909446029034480290B9
:103270000DF032BA90F84B3010B513B11A4B012251
:103280001A701A4C0DF034FA94F8293013B994F8E6
:103290002A304BB1E1692269D4E9053001FB02F221
:1032A00000FB03F3934209D20123206C84F83D30E4
:1032B00009F08EFA94F83E307BB910BD94F83C00CA
:1032C00038B19B1AB3FBF1F2994298BF02F1FF3279
:1032D0006262012384F82E30E6E7606C09F0D8F9C9
:1032E000002384F83E3010BD34710024387100246E
:1032F0000DF0BCB90DF017BB90F83D3003B9704725
:1033000010B54FF0FF310446406C09F09DF94FF4C1
:103310008073A4F83D3010BD38B50C4605464FF01B
:10332000FF31406C04EBC40409F08EF9686C09F0BD
:10333000AFF9002305EB840484F8283095F8283091
:103340000BB92B6BAB6338BD14484369D90323D544
:10335000002310B5C0F88430BFF34F8FD0F8803011
:1033600043F6E074C3F34E3CC3F3C90E4FEA4C1C62
:103370000CEA0401734641EA8372013BC0F87422EF
:103380005A1CF8D1ACF1200C1CF1200FF0D1BFF386
:103390004F8FBFF36F8F10BD704700BF00ED00E08F
:1033A00010B5002933D10446052A09D8DFE802F018
:1033B0000F1E222703090022012380F8292003621F
:1033C00010BD003B18BF012380F82D3010BD4068B0
:1033D00003681B6998470028F2D00122002384F873
:1033E000292084F82C20C4E9043310BD002380F880
:1033F000293010BD00220362C0E9042210BD002262
:103400000121036280F82A10C0E9042210BD034B99
:10341000A221034A03481FF0FDFB00BF944602901F
:10342000744F02903448029010B539BB90F829309F
:10343000044623B994F82B3063B9012010BD12491A
:103440004369096891F867100B44436194F82B3085
:10345000002BF2D0A168104613685B69116398478E
:10346000002394F82C0084F82B300028E5D194F840
:103470002D30002BE2D184F8290010BD034BD02160
:10348000034A04481FF0C6FB0C63022494460290D2
:10349000485102903448029090F8283070B5FBB93A
:1034A0000122856BC360A0F82D2005F5872480F8E4
:1034B0002820036143618361C36103624362C0F8F2
:1034C0002930D0E90C263244944210D80B4A85604A
:1034D0008463184681F83430C1F836200B6370BD20
:1034E000074B40F2C511074A07481FF093FB074BF3
:1034F0005221074A04481FF08DFB00BFE001200164
:10350000E85202901853029034480290A05402905E
:10351000DC540290084B4FF08062C3F88820BFF360
:103520004F8FBFF36F8F4FF08072C3F88820BFF3C7
:103530004F8FBFF36F8F704700E100E0034B4FF0F8
:1035400080629A604FF080729A60704700E100E0FC
:1035500038B504460DF0D9F823685D6E10F03EFBD7
:1035600001462046A8472368164AD3F8885095425A
:103570001CD1154A0125D3F88C3002F57F31134850
:10358000C4E90F21124A0570934216D10023114A53
:103590006364137064684FF487200F4B0F49104A1F
:1035A0004C6459601A63C3E90D0238BD0D4A00230B
:1035B0002046A2F57F31A847ECE700212046984736
:1035C000E8E700BF0916009000FC03D00A6302245C
:1035D0008D1400900B630224387100248071002444
:1035E00000F40BD000F807D010B5144C236823B3B7
:1035F000134B144A1B6C11888B420AD006F0E2FB75
:10360000206803681B6A98470020BDE81040FDF75A
:10361000E1BE0D4B198806F0D5FB226892F86630A2
:10362000013382F86630FFF7DBF820680DF0C0FD4B
:103630000020BDE81040FDF799BE10BD0C630224C8
:103640000010005032710024307100242DE9F04345
:10365000DFF8B88083B001264FF47077044623E08A
:10366000536A2846984700232A68236200974FF43C
:103670009073D2F8149028464FF4F072A168C847AE
:10368000236984F82C0001332361002834D02B688F
:103690009B6A434532D16B69013B0022E36084F8A9
:1036A0002E20606C08F0F4FF4FF0FF31206C09F021
:1036B0005DF84FF0FF31606C08F0C6FF94F82E30D3
:1036C000002BEED06568216A2A6884F82B600029F7
:1036D000C6D1636A002BC9D0D2E90991414511D105
:1036E0006869C1182846C8472369606A00212A68AA
:1036F000034461622361B9E70123CEE72846984776
:103700000346C9E728468847636AEAE77D170090C1
:10371000014808B5FFF79AFF3871002438B51548FD
:103720000025FEF73DFC144C14494FF480732A46E3
:10373000012021602946A385A387E560A56284F85E
:103740002E50A56384F83E50C4E90455C4E90655DB
:10375000C4E90855C4E90C55C4E91055C4E901553C
:1037600008F0B8FF03462846236408F02BFF606486
:1037700038BD00BF80710024387100248856029043
:103780002DE9F04F7B4C16468FB0A4FB034206EBAD
:10379000122C130AB44540F2E880774A8E460D9306
:1037A0003346516AF246754FDFF8DC81DFF8DCB151
:1037B000CDE90B1C844609E00A9B82460C9ADDF891
:1037C00024C09A420CF5C07C00F0CA801A010B9804
:1037D00001330CF580756646CDF824C00A93B2FB20
:1037E000F0F100FB1122C1EB01115046520002EB37
:1037F0008121002214460A462146B2F5872FDBD2EA
:103800008418B1462B46089004F1300A04F1100EDA
:10381000CDE90462CDE90615CDF80CA00EF56C7665
:10382000AEF1100503F1FF3C4C46CDE901931CF8C5
:10383000012F0435524802349CF84010043658F8E1
:103840002230754550F8220057F8212014F8029CC8
:10385000584413444B4A0BEB234352F8211000EB1E
:103860000902594403EB090A92F8002189449AF8A5
:1038700000A199F800914FEA9A0A4FEAD9094FEA54
:103880004A1A4AEAC92A4AEAD20A25F804AC14F8C4
:10389000019C03EB090201EB090A814492F8002123
:1038A0009AF800A14FEA920299F800914FEADA0AD9
:1038B0004FEA421242EACA2242EAD90225F8022C11
:1038C00094F8069003EB090201EB090A814492F88F
:1038D00000219AF800A14FEA920299F800914FEA6C
:1038E000DA0A4FEA421242EACA2242EAD90226F82A
:1038F000042CE27913441144024493F8003191F806
:1039000000114FEA930392F800214FEAD1014FEAE8
:10391000431343EAC12343EAD20326F8023C86D18B
:1039200005F1100E039ADDE90193964503F10403B6
:1039300009F140097FF472AF0898DDE90615DDE969
:103940000462023110293FF437AF082904D0103641
:10395000083502F5F06250E7099B03F18006F7E7AE
:103960004FF4707204490D9B8A6218460FB0BDE88F
:10397000F08F00BFABAAAAAAC8B10024C8A5002432
:10398000C8A90024C8AD0024C8A10024C0560290D4
:103990002DE9F04F02EB13268FB01C0AB24280F0E3
:1039A0005681AD4B8E46AD4DD3F810C0DFF8B0A2B6
:1039B000DFF8B092DFF8B0B2DFF8B082CDF81CC00B
:1039C000CDF820E0D3E90971CDE90C6406910B979D
:1039D00007E0DDE909020C9B00F580709A4200F0D7
:1039E000358113010B9C4FF0080E013200F1800667
:1039F000B3FBF4F104FB1133069C5B0004FB01F103
:103A000003EBC10C734686461F46CDE90902079BAE
:103A10006345DED9089B0EF14001321D05976344D2
:103A200003F12000CDE903ECCDE9010692F83C70EA
:103A3000103312F8040C40315AF82760043211F8A0
:103A400080CC55F8204046445BF8200059F8277098
:103A50004444074406EB0C0008EB274790F800E1CC
:103A600004EB0C00BC444FEADE0E90F800019CF819
:103A700000C1C0084FEA9C0C40EACE2040EA4C103E
:103A800023F8100C11F87F0C06440444384496F8CF
:103A9000006194F8004190F80001F608E4088008FD
:103AA00044EAC62444EA401423F80E4C92F83970D4
:103AB00012F8070C5AF8276011F87ECC55F8204010
:103AC00046445BF8200059F827704444074406EB4D
:103AD0000C0008EB274790F800E104EB0C00BC4415
:103AE0004FEADE0E90F800019CF800C1C0084FEAD2
:103AF0009C0C40EACE2040EA4C1023F80C0C11F844
:103B00007D0C06440444384496F8006194F8004162
:103B100090F80001F608E408800844EAC62444EA64
:103B2000401423F80A4C12F8060C92F83A7011F877
:103B30007CCC5AF8276055F8204059F82770464445
:103B40005BF820004444074406EB0C0008EB2747D1
:103B500090F800E104EB0C00BC444FEADE0E90F854
:103B600000019CF800C1C0084FEA9C0C40EACE203E
:103B700040EA4C1023F8080C11F87B0C064404446E
